
dmx_adapter.elf:     file format elf32-avr

Sections:
Idx Name          Size      VMA       LMA       File off  Algn
  0 .text         000003d6  00000000  00000000  00000074  2**1
                  CONTENTS, ALLOC, LOAD, READONLY, CODE
  1 .bss          0000020e  00800060  00800060  0000044a  2**0
                  ALLOC
  2 .stab         000006b4  00000000  00000000  0000044c  2**2
                  CONTENTS, READONLY, DEBUGGING
  3 .stabstr      00000082  00000000  00000000  00000b00  2**0
                  CONTENTS, READONLY, DEBUGGING

Disassembly of section .text:

00000000 <__vectors>:
   0:	12 c0       	rjmp	.+36     	; 0x26 <__ctors_end>
   2:	21 c0       	rjmp	.+66     	; 0x46 <__bad_interrupt>
   4:	20 c0       	rjmp	.+64     	; 0x46 <__bad_interrupt>
   6:	1f c0       	rjmp	.+62     	; 0x46 <__bad_interrupt>
   8:	1e c0       	rjmp	.+60     	; 0x46 <__bad_interrupt>
   a:	1d c0       	rjmp	.+58     	; 0x46 <__bad_interrupt>
   c:	1c c0       	rjmp	.+56     	; 0x46 <__bad_interrupt>
   e:	1b c0       	rjmp	.+54     	; 0x46 <__bad_interrupt>
  10:	1a c0       	rjmp	.+52     	; 0x46 <__bad_interrupt>
  12:	1a c0       	rjmp	.+52     	; 0x48 <__vector_9>
  14:	18 c0       	rjmp	.+48     	; 0x46 <__bad_interrupt>
  16:	17 c0       	rjmp	.+46     	; 0x46 <__bad_interrupt>
  18:	16 c0       	rjmp	.+44     	; 0x46 <__bad_interrupt>
  1a:	15 c0       	rjmp	.+42     	; 0x46 <__bad_interrupt>
  1c:	14 c0       	rjmp	.+40     	; 0x46 <__bad_interrupt>
  1e:	13 c0       	rjmp	.+38     	; 0x46 <__bad_interrupt>
  20:	12 c0       	rjmp	.+36     	; 0x46 <__bad_interrupt>
  22:	11 c0       	rjmp	.+34     	; 0x46 <__bad_interrupt>
  24:	10 c0       	rjmp	.+32     	; 0x46 <__bad_interrupt>

00000026 <__ctors_end>:
  26:	11 24       	eor	r1, r1
  28:	1f be       	out	0x3f, r1	; 63
  2a:	cf e5       	ldi	r28, 0x5F	; 95
  2c:	d4 e0       	ldi	r29, 0x04	; 4
  2e:	de bf       	out	0x3e, r29	; 62
  30:	cd bf       	out	0x3d, r28	; 61

00000032 <__do_clear_bss>:
  32:	12 e0       	ldi	r17, 0x02	; 2
  34:	a0 e6       	ldi	r26, 0x60	; 96
  36:	b0 e0       	ldi	r27, 0x00	; 0
  38:	01 c0       	rjmp	.+2      	; 0x3c <.do_clear_bss_start>

0000003a <.do_clear_bss_loop>:
  3a:	1d 92       	st	X+, r1

0000003c <.do_clear_bss_start>:
  3c:	ae 36       	cpi	r26, 0x6E	; 110
  3e:	b1 07       	cpc	r27, r17
  40:	e1 f7       	brne	.-8      	; 0x3a <.do_clear_bss_loop>
  42:	d9 d0       	rcall	.+434    	; 0x1f6 <main>
  44:	c6 c1       	rjmp	.+908    	; 0x3d2 <_exit>

00000046 <__bad_interrupt>:
  46:	dc cf       	rjmp	.-72     	; 0x0 <__vectors>

00000048 <__vector_9>:
  48:	1f 92       	push	r1
  4a:	0f 92       	push	r0
  4c:	0f b6       	in	r0, 0x3f	; 63
  4e:	0f 92       	push	r0
  50:	11 24       	eor	r1, r1
  52:	8f 93       	push	r24
  54:	9f 93       	push	r25
  56:	ef 93       	push	r30
  58:	ff 93       	push	r31
  5a:	80 91 60 00 	lds	r24, 0x0060
  5e:	82 bf       	out	0x32, r24	; 50
  60:	80 91 6d 02 	lds	r24, 0x026D
  64:	82 bb       	out	0x12, r24	; 18
  66:	80 91 6a 02 	lds	r24, 0x026A
  6a:	81 38       	cpi	r24, 0x81	; 129
  6c:	00 f1       	brcs	.+64     	; 0xae <__vector_9+0x66>
  6e:	90 91 6b 02 	lds	r25, 0x026B
  72:	80 91 69 02 	lds	r24, 0x0269
  76:	89 23       	and	r24, r25
  78:	b1 f1       	breq	.+108    	; 0xe6 <__vector_9+0x9e>
  7a:	82 b3       	in	r24, 0x12	; 18
  7c:	84 60       	ori	r24, 0x04	; 4
  7e:	80 93 6d 02 	sts	0x026D, r24
  82:	80 91 6b 02 	lds	r24, 0x026B
  86:	86 95       	lsr	r24
  88:	80 93 6b 02 	sts	0x026B, r24
  8c:	89 ef       	ldi	r24, 0xF9	; 249
  8e:	80 93 60 00 	sts	0x0060, r24
  92:	80 91 6a 02 	lds	r24, 0x026A
  96:	81 50       	subi	r24, 0x01	; 1
  98:	80 93 6a 02 	sts	0x026A, r24
  9c:	ff 91       	pop	r31
  9e:	ef 91       	pop	r30
  a0:	9f 91       	pop	r25
  a2:	8f 91       	pop	r24
  a4:	0f 90       	pop	r0
  a6:	0f be       	out	0x3f, r0	; 63
  a8:	0f 90       	pop	r0
  aa:	1f 90       	pop	r1
  ac:	18 95       	reti
  ae:	80 91 6a 02 	lds	r24, 0x026A
  b2:	80 38       	cpi	r24, 0x80	; 128
  b4:	e9 f0       	breq	.+58     	; 0xf0 <__vector_9+0xa8>
  b6:	80 91 6a 02 	lds	r24, 0x026A
  ba:	80 31       	cpi	r24, 0x10	; 16
  bc:	09 f4       	brne	.+2      	; 0xc0 <__vector_9+0x78>
  be:	45 c0       	rjmp	.+138    	; 0x14a <__vector_9+0x102>
  c0:	80 91 6a 02 	lds	r24, 0x026A
  c4:	80 34       	cpi	r24, 0x40	; 64
  c6:	b1 f1       	breq	.+108    	; 0x134 <__vector_9+0xec>
  c8:	8c ed       	ldi	r24, 0xDC	; 220
  ca:	80 93 60 00 	sts	0x0060, r24
  ce:	80 91 6a 02 	lds	r24, 0x026A
  d2:	80 32       	cpi	r24, 0x20	; 32
  d4:	19 f7       	brne	.-58     	; 0x9c <__vector_9+0x54>
  d6:	82 b3       	in	r24, 0x12	; 18
  d8:	8c 60       	ori	r24, 0x0C	; 12
  da:	80 93 6d 02 	sts	0x026D, r24
  de:	80 e1       	ldi	r24, 0x10	; 16
  e0:	80 93 6a 02 	sts	0x026A, r24
  e4:	db cf       	rjmp	.-74     	; 0x9c <__vector_9+0x54>
  e6:	82 b3       	in	r24, 0x12	; 18
  e8:	8b 7f       	andi	r24, 0xFB	; 251
  ea:	80 93 6d 02 	sts	0x026D, r24
  ee:	c9 cf       	rjmp	.-110    	; 0x82 <__vector_9+0x3a>
  f0:	82 b3       	in	r24, 0x12	; 18
  f2:	84 60       	ori	r24, 0x04	; 4
  f4:	80 93 6d 02 	sts	0x026D, r24
  f8:	8f ee       	ldi	r24, 0xEF	; 239
  fa:	80 93 60 00 	sts	0x0060, r24
  fe:	80 91 67 02 	lds	r24, 0x0267
 102:	90 91 68 02 	lds	r25, 0x0268
 106:	01 97       	sbiw	r24, 0x01	; 1
 108:	90 93 68 02 	sts	0x0268, r25
 10c:	80 93 67 02 	sts	0x0267, r24
 110:	80 91 67 02 	lds	r24, 0x0267
 114:	90 91 68 02 	lds	r25, 0x0268
 118:	89 2b       	or	r24, r25
 11a:	09 f7       	brne	.-62     	; 0xde <__vector_9+0x96>
 11c:	80 91 61 00 	lds	r24, 0x0061
 120:	90 91 62 00 	lds	r25, 0x0062
 124:	90 93 68 02 	sts	0x0268, r25
 128:	80 93 67 02 	sts	0x0267, r24
 12c:	80 e4       	ldi	r24, 0x40	; 64
 12e:	80 93 6a 02 	sts	0x026A, r24
 132:	b4 cf       	rjmp	.-152    	; 0x9c <__vector_9+0x54>
 134:	82 b3       	in	r24, 0x12	; 18
 136:	8b 7f       	andi	r24, 0xFB	; 251
 138:	80 93 6d 02 	sts	0x026D, r24
 13c:	84 e1       	ldi	r24, 0x14	; 20
 13e:	80 93 60 00 	sts	0x0060, r24
 142:	80 e2       	ldi	r24, 0x20	; 32
 144:	80 93 6a 02 	sts	0x026A, r24
 148:	a9 cf       	rjmp	.-174    	; 0x9c <__vector_9+0x54>
 14a:	82 b3       	in	r24, 0x12	; 18
 14c:	83 7f       	andi	r24, 0xF3	; 243
 14e:	80 93 6d 02 	sts	0x026D, r24
 152:	89 ef       	ldi	r24, 0xF9	; 249
 154:	80 93 60 00 	sts	0x0060, r24
 158:	88 e8       	ldi	r24, 0x88	; 136
 15a:	80 93 6a 02 	sts	0x026A, r24
 15e:	e0 91 61 00 	lds	r30, 0x0061
 162:	f0 91 62 00 	lds	r31, 0x0062
 166:	80 91 67 02 	lds	r24, 0x0267
 16a:	90 91 68 02 	lds	r25, 0x0268
 16e:	e8 1b       	sub	r30, r24
 170:	f9 0b       	sbc	r31, r25
 172:	ed 59       	subi	r30, 0x9D	; 157
 174:	ff 4f       	sbci	r31, 0xFF	; 255
 176:	80 81       	ld	r24, Z
 178:	80 93 6b 02 	sts	0x026B, r24
 17c:	8f cf       	rjmp	.-226    	; 0x9c <__vector_9+0x54>

0000017e <init_uart>:
 17e:	88 e1       	ldi	r24, 0x18	; 24
 180:	8a b9       	out	0x0a, r24	; 10
 182:	80 b5       	in	r24, 0x20	; 32
 184:	86 68       	ori	r24, 0x86	; 134
 186:	80 bd       	out	0x20, r24	; 32
 188:	10 bc       	out	0x20, r1	; 32
 18a:	8a e0       	ldi	r24, 0x0A	; 10
 18c:	89 b9       	out	0x09, r24	; 9
 18e:	08 95       	ret

00000190 <init_timer>:
 190:	89 b7       	in	r24, 0x39	; 57
 192:	81 60       	ori	r24, 0x01	; 1
 194:	89 bf       	out	0x39, r24	; 57
 196:	83 b7       	in	r24, 0x33	; 51
 198:	82 60       	ori	r24, 0x02	; 2
 19a:	83 bf       	out	0x33, r24	; 51
 19c:	12 be       	out	0x32, r1	; 50
 19e:	08 95       	ret

000001a0 <reset>:
 1a0:	8c e0       	ldi	r24, 0x0C	; 12
 1a2:	82 bb       	out	0x12, r24	; 18
 1a4:	10 92 6a 02 	sts	0x026A, r1
 1a8:	10 92 6b 02 	sts	0x026B, r1
 1ac:	81 e0       	ldi	r24, 0x01	; 1
 1ae:	92 e0       	ldi	r25, 0x02	; 2
 1b0:	90 93 62 00 	sts	0x0062, r25
 1b4:	80 93 61 00 	sts	0x0061, r24
 1b8:	81 e0       	ldi	r24, 0x01	; 1
 1ba:	80 93 69 02 	sts	0x0269, r24
 1be:	10 92 64 02 	sts	0x0264, r1
 1c2:	10 92 66 02 	sts	0x0266, r1
 1c6:	10 92 65 02 	sts	0x0265, r1
 1ca:	10 92 6c 02 	sts	0x026C, r1
 1ce:	81 e0       	ldi	r24, 0x01	; 1
 1d0:	90 e0       	ldi	r25, 0x00	; 0
 1d2:	fc 01       	movw	r30, r24
 1d4:	ed 59       	subi	r30, 0x9D	; 157
 1d6:	ff 4f       	sbci	r31, 0xFF	; 255
 1d8:	10 82       	st	Z, r1
 1da:	01 96       	adiw	r24, 0x01	; 1
 1dc:	22 e0       	ldi	r18, 0x02	; 2
 1de:	81 30       	cpi	r24, 0x01	; 1
 1e0:	92 07       	cpc	r25, r18
 1e2:	b9 f7       	brne	.-18     	; 0x1d2 <reset+0x32>
 1e4:	08 95       	ret

000001e6 <uart_getc>:
 1e6:	5f 9b       	sbis	0x0b, 7	; 11
 1e8:	fe cf       	rjmp	.-4      	; 0x1e6 <uart_getc>
 1ea:	8c b1       	in	r24, 0x0c	; 12
 1ec:	08 95       	ret

000001ee <uart_putc>:
 1ee:	5d 9b       	sbis	0x0b, 5	; 11
 1f0:	fe cf       	rjmp	.-4      	; 0x1ee <uart_putc>
 1f2:	8c b9       	out	0x0c, r24	; 12
 1f4:	08 95       	ret

000001f6 <main>:
 1f6:	bf 92       	push	r11
 1f8:	cf 92       	push	r12
 1fa:	df 92       	push	r13
 1fc:	ef 92       	push	r14
 1fe:	ff 92       	push	r15
 200:	0f 93       	push	r16
 202:	1f 93       	push	r17
 204:	cf 93       	push	r28
 206:	df 93       	push	r29
 208:	8c e0       	ldi	r24, 0x0C	; 12
 20a:	81 bb       	out	0x11, r24	; 17
 20c:	89 b7       	in	r24, 0x39	; 57
 20e:	81 60       	ori	r24, 0x01	; 1
 210:	89 bf       	out	0x39, r24	; 57
 212:	83 b7       	in	r24, 0x33	; 51
 214:	82 60       	ori	r24, 0x02	; 2
 216:	83 bf       	out	0x33, r24	; 51
 218:	12 be       	out	0x32, r1	; 50
 21a:	88 e1       	ldi	r24, 0x18	; 24
 21c:	8a b9       	out	0x0a, r24	; 10
 21e:	80 b5       	in	r24, 0x20	; 32
 220:	86 68       	ori	r24, 0x86	; 134
 222:	80 bd       	out	0x20, r24	; 32
 224:	10 bc       	out	0x20, r1	; 32
 226:	8a e0       	ldi	r24, 0x0A	; 10
 228:	89 b9       	out	0x09, r24	; 9
 22a:	ba df       	rcall	.-140    	; 0x1a0 <reset>
 22c:	80 e1       	ldi	r24, 0x10	; 16
 22e:	80 93 6a 02 	sts	0x026A, r24
 232:	81 e0       	ldi	r24, 0x01	; 1
 234:	92 e0       	ldi	r25, 0x02	; 2
 236:	90 93 62 00 	sts	0x0062, r25
 23a:	80 93 61 00 	sts	0x0061, r24
 23e:	78 94       	sei
 240:	80 91 6c 02 	lds	r24, 0x026C
 244:	32 ec       	ldi	r19, 0xC2	; 194
 246:	46 ea       	ldi	r20, 0xA6	; 166
 248:	54 ea       	ldi	r21, 0xA4	; 164
 24a:	64 e1       	ldi	r22, 0x14	; 20
 24c:	74 e5       	ldi	r23, 0x54	; 84
 24e:	a3 e5       	ldi	r26, 0x53	; 83
 250:	be ec       	ldi	r27, 0xCE	; 206
 252:	10 e1       	ldi	r17, 0x10	; 16
 254:	01 e0       	ldi	r16, 0x01	; 1
 256:	9c ec       	ldi	r25, 0xCC	; 204
 258:	f9 2e       	mov	r15, r25
 25a:	fa ec       	ldi	r31, 0xCA	; 202
 25c:	ef 2e       	mov	r14, r31
 25e:	e3 ea       	ldi	r30, 0xA3	; 163
 260:	de 2e       	mov	r13, r30
 262:	2c e0       	ldi	r18, 0x0C	; 12
 264:	c2 2e       	mov	r12, r18
 266:	c1 e0       	ldi	r28, 0x01	; 1
 268:	d2 e0       	ldi	r29, 0x02	; 2
 26a:	92 ea       	ldi	r25, 0xA2	; 162
 26c:	b9 2e       	mov	r11, r25
 26e:	5f 9b       	sbis	0x0b, 7	; 11
 270:	fe cf       	rjmp	.-4      	; 0x26e <main+0x78>
 272:	5f 9b       	sbis	0x0b, 7	; 11
 274:	fe cf       	rjmp	.-4      	; 0x272 <main+0x7c>
 276:	2c b1       	in	r18, 0x0c	; 12
 278:	22 34       	cpi	r18, 0x42	; 66
 27a:	f1 f0       	breq	.+60     	; 0x2b8 <main+0xc2>
 27c:	26 32       	cpi	r18, 0x26	; 38
 27e:	31 f1       	breq	.+76     	; 0x2cc <main+0xd6>
 280:	28 34       	cpi	r18, 0x48	; 72
 282:	49 f1       	breq	.+82     	; 0x2d6 <main+0xe0>
 284:	29 34       	cpi	r18, 0x49	; 73
 286:	99 f1       	breq	.+102    	; 0x2ee <main+0xf8>
 288:	24 32       	cpi	r18, 0x24	; 36
 28a:	e9 f1       	breq	.+122    	; 0x306 <main+0x110>
 28c:	22 32       	cpi	r18, 0x22	; 34
 28e:	09 f4       	brne	.+2      	; 0x292 <main+0x9c>
 290:	68 c0       	rjmp	.+208    	; 0x362 <main+0x16c>
 292:	2a 34       	cpi	r18, 0x4A	; 74
 294:	09 f4       	brne	.+2      	; 0x298 <main+0xa2>
 296:	6c c0       	rjmp	.+216    	; 0x370 <main+0x17a>
 298:	2c 34       	cpi	r18, 0x4C	; 76
 29a:	09 f4       	brne	.+2      	; 0x29e <main+0xa8>
 29c:	70 c0       	rjmp	.+224    	; 0x37e <main+0x188>
 29e:	24 34       	cpi	r18, 0x44	; 68
 2a0:	09 f4       	brne	.+2      	; 0x2a4 <main+0xae>
 2a2:	74 c0       	rjmp	.+232    	; 0x38c <main+0x196>
 2a4:	26 34       	cpi	r18, 0x46	; 70
 2a6:	09 f4       	brne	.+2      	; 0x2aa <main+0xb4>
 2a8:	75 c0       	rjmp	.+234    	; 0x394 <main+0x19e>
 2aa:	2e 34       	cpi	r18, 0x4E	; 78
 2ac:	e9 f1       	breq	.+122    	; 0x328 <main+0x132>
 2ae:	2f 34       	cpi	r18, 0x4F	; 79
 2b0:	09 f4       	brne	.+2      	; 0x2b4 <main+0xbe>
 2b2:	48 c0       	rjmp	.+144    	; 0x344 <main+0x14e>
 2b4:	82 2f       	mov	r24, r18
 2b6:	db cf       	rjmp	.-74     	; 0x26e <main+0x78>
 2b8:	5f 9b       	sbis	0x0b, 7	; 11
 2ba:	fe cf       	rjmp	.-4      	; 0x2b8 <main+0xc2>
 2bc:	8c b1       	in	r24, 0x0c	; 12
 2be:	80 93 63 00 	sts	0x0063, r24
 2c2:	5d 9b       	sbis	0x0b, 5	; 11
 2c4:	fe cf       	rjmp	.-4      	; 0x2c2 <main+0xcc>
 2c6:	3c b9       	out	0x0c, r19	; 12
 2c8:	82 2f       	mov	r24, r18
 2ca:	d1 cf       	rjmp	.-94     	; 0x26e <main+0x78>
 2cc:	5d 9b       	sbis	0x0b, 5	; 11
 2ce:	fe cf       	rjmp	.-4      	; 0x2cc <main+0xd6>
 2d0:	4c b9       	out	0x0c, r20	; 12
 2d2:	82 2f       	mov	r24, r18
 2d4:	cc cf       	rjmp	.-104    	; 0x26e <main+0x78>
 2d6:	5f 9b       	sbis	0x0b, 7	; 11
 2d8:	fe cf       	rjmp	.-4      	; 0x2d6 <main+0xe0>
 2da:	ec b1       	in	r30, 0x0c	; 12
 2dc:	5f 9b       	sbis	0x0b, 7	; 11
 2de:	fe cf       	rjmp	.-4      	; 0x2dc <main+0xe6>
 2e0:	8c b1       	in	r24, 0x0c	; 12
 2e2:	f0 e0       	ldi	r31, 0x00	; 0
 2e4:	ec 59       	subi	r30, 0x9C	; 156
 2e6:	ff 4f       	sbci	r31, 0xFF	; 255
 2e8:	80 83       	st	Z, r24
 2ea:	82 2f       	mov	r24, r18
 2ec:	c0 cf       	rjmp	.-128    	; 0x26e <main+0x78>
 2ee:	5f 9b       	sbis	0x0b, 7	; 11
 2f0:	fe cf       	rjmp	.-4      	; 0x2ee <main+0xf8>
 2f2:	ec b1       	in	r30, 0x0c	; 12
 2f4:	5f 9b       	sbis	0x0b, 7	; 11
 2f6:	fe cf       	rjmp	.-4      	; 0x2f4 <main+0xfe>
 2f8:	8c b1       	in	r24, 0x0c	; 12
 2fa:	f0 e0       	ldi	r31, 0x00	; 0
 2fc:	ec 59       	subi	r30, 0x9C	; 156
 2fe:	fe 4f       	sbci	r31, 0xFE	; 254
 300:	80 83       	st	Z, r24
 302:	82 2f       	mov	r24, r18
 304:	b4 cf       	rjmp	.-152    	; 0x26e <main+0x78>
 306:	5d 9b       	sbis	0x0b, 5	; 11
 308:	fe cf       	rjmp	.-4      	; 0x306 <main+0x110>
 30a:	5c b9       	out	0x0c, r21	; 12
 30c:	5d 9b       	sbis	0x0b, 5	; 11
 30e:	fe cf       	rjmp	.-4      	; 0x30c <main+0x116>
 310:	6c b9       	out	0x0c, r22	; 12
 312:	5d 9b       	sbis	0x0b, 5	; 11
 314:	fe cf       	rjmp	.-4      	; 0x312 <main+0x11c>
 316:	7c b9       	out	0x0c, r23	; 12
 318:	5d 9b       	sbis	0x0b, 5	; 11
 31a:	fe cf       	rjmp	.-4      	; 0x318 <main+0x122>
 31c:	ac b9       	out	0x0c, r26	; 12
 31e:	5d 9b       	sbis	0x0b, 5	; 11
 320:	fe cf       	rjmp	.-4      	; 0x31e <main+0x128>
 322:	1c b8       	out	0x0c, r1	; 12
 324:	82 2f       	mov	r24, r18
 326:	a3 cf       	rjmp	.-186    	; 0x26e <main+0x78>
 328:	5f 9b       	sbis	0x0b, 7	; 11
 32a:	fe cf       	rjmp	.-4      	; 0x328 <main+0x132>
 32c:	8c b1       	in	r24, 0x0c	; 12
 32e:	90 e0       	ldi	r25, 0x00	; 0
 330:	01 96       	adiw	r24, 0x01	; 1
 332:	90 93 62 00 	sts	0x0062, r25
 336:	80 93 61 00 	sts	0x0061, r24
 33a:	5d 9b       	sbis	0x0b, 5	; 11
 33c:	fe cf       	rjmp	.-4      	; 0x33a <main+0x144>
 33e:	bc b9       	out	0x0c, r27	; 12
 340:	82 2f       	mov	r24, r18
 342:	95 cf       	rjmp	.-214    	; 0x26e <main+0x78>
 344:	5f 9b       	sbis	0x0b, 7	; 11
 346:	fe cf       	rjmp	.-4      	; 0x344 <main+0x14e>
 348:	8c b1       	in	r24, 0x0c	; 12
 34a:	90 e0       	ldi	r25, 0x00	; 0
 34c:	8f 5f       	subi	r24, 0xFF	; 255
 34e:	9e 4f       	sbci	r25, 0xFE	; 254
 350:	90 93 62 00 	sts	0x0062, r25
 354:	80 93 61 00 	sts	0x0061, r24
 358:	5d 9b       	sbis	0x0b, 5	; 11
 35a:	fe cf       	rjmp	.-4      	; 0x358 <main+0x162>
 35c:	bc b9       	out	0x0c, r27	; 12
 35e:	82 2f       	mov	r24, r18
 360:	86 cf       	rjmp	.-244    	; 0x26e <main+0x78>
 362:	86 32       	cpi	r24, 0x26	; 38
 364:	d9 f0       	breq	.+54     	; 0x39c <main+0x1a6>
 366:	5d 9b       	sbis	0x0b, 5	; 11
 368:	fe cf       	rjmp	.-4      	; 0x366 <main+0x170>
 36a:	dc b8       	out	0x0c, r13	; 12
 36c:	82 e2       	ldi	r24, 0x22	; 34
 36e:	7f cf       	rjmp	.-258    	; 0x26e <main+0x78>
 370:	10 92 69 02 	sts	0x0269, r1
 374:	5d 9b       	sbis	0x0b, 5	; 11
 376:	fe cf       	rjmp	.-4      	; 0x374 <main+0x17e>
 378:	ec b8       	out	0x0c, r14	; 12
 37a:	8a e4       	ldi	r24, 0x4A	; 74
 37c:	78 cf       	rjmp	.-272    	; 0x26e <main+0x78>
 37e:	00 93 69 02 	sts	0x0269, r16
 382:	5d 9b       	sbis	0x0b, 5	; 11
 384:	fe cf       	rjmp	.-4      	; 0x382 <main+0x18c>
 386:	fc b8       	out	0x0c, r15	; 12
 388:	8c e4       	ldi	r24, 0x4C	; 76
 38a:	71 cf       	rjmp	.-286    	; 0x26e <main+0x78>
 38c:	10 93 6a 02 	sts	0x026A, r17
 390:	82 2f       	mov	r24, r18
 392:	6d cf       	rjmp	.-294    	; 0x26e <main+0x78>
 394:	10 92 6a 02 	sts	0x026A, r1
 398:	86 e4       	ldi	r24, 0x46	; 70
 39a:	69 cf       	rjmp	.-302    	; 0x26e <main+0x78>
 39c:	c2 ba       	out	0x12, r12	; 18
 39e:	10 92 6a 02 	sts	0x026A, r1
 3a2:	10 92 6b 02 	sts	0x026B, r1
 3a6:	d0 93 62 00 	sts	0x0062, r29
 3aa:	c0 93 61 00 	sts	0x0061, r28
 3ae:	00 93 69 02 	sts	0x0269, r16
 3b2:	81 e0       	ldi	r24, 0x01	; 1
 3b4:	90 e0       	ldi	r25, 0x00	; 0
 3b6:	fc 01       	movw	r30, r24
 3b8:	ed 59       	subi	r30, 0x9D	; 157
 3ba:	ff 4f       	sbci	r31, 0xFF	; 255
 3bc:	10 82       	st	Z, r1
 3be:	01 96       	adiw	r24, 0x01	; 1
 3c0:	22 e0       	ldi	r18, 0x02	; 2
 3c2:	81 30       	cpi	r24, 0x01	; 1
 3c4:	92 07       	cpc	r25, r18
 3c6:	b9 f7       	brne	.-18     	; 0x3b6 <main+0x1c0>
 3c8:	5d 9b       	sbis	0x0b, 5	; 11
 3ca:	fe cf       	rjmp	.-4      	; 0x3c8 <main+0x1d2>
 3cc:	bc b8       	out	0x0c, r11	; 12
 3ce:	80 e0       	ldi	r24, 0x00	; 0
 3d0:	4e cf       	rjmp	.-356    	; 0x26e <main+0x78>

000003d2 <_exit>:
 3d2:	f8 94       	cli

000003d4 <__stop_program>:
 3d4:	ff cf       	rjmp	.-2      	; 0x3d4 <__stop_program>
